S00B00006170702E73726563D8
S113000000E8FF1F35020000830200008F02000099
S113001000000000000000000000000000000000DC
S1130020000000000000000000000000B504000013
S11300300000000000000000B7040000B904000044
S11300404D040000550400005D0400006504000038
S1130050AD040000AD040000AD040000AD040000D8
S11300606D040000750400007D0400008504000098
S11300708D040000950400009D040000AD04000000
S1130080AD040000AD040000AD040000AD040000A8
S1130090AD040000AD040000AD040000A5040000A0
S11300A0AD040000AD040000AD040000AD04000088
S11300B0AD040000AD040000AD040000AD04000078
S11300C051490968802212040A434F490A600021F9
S11300D001607047521EC9B2102359434018802151
S11300E04900425070470A00D2B210235A43821882
S11300F084235B00D25801231343C9B21022514315
S11301004018842149004350704770B504000D0025
S113011016002000FFF7D4FF32002900C9B22000E6
S1130120FFF7D8FF70BD80B50022D24300213748C5
S1130130FFF7EBFF0022D24300213448FFF7CAFF48
S113014032480068012101433048016000212F48F2
S1130150FFF7C9FF2C480068012101432A480160C8
S11301602B4800780006FBD509202A490870002096
S113017029490870A02029490870002028490870DE
S113018023480078802101432148017020480078E9
S11301900006FBD506201F49087000201E49087080
S11301A0A0201E49087000201D49087001201D4927
S11301B0087002201C49087003201C4908700420A0
S11301C01B490870124800788021014310480170CF
S11301D00F4800780006FBD509200E49087000205E
S11301E00D490870A0200D49087000200C490870C2
S11301F007480078802101430548017004480078CD
S11302000006FBD5FEE700003C800440007003407C
S113021000000240070002400600024005000240C0
S1130220040002400B0002400A00024009000240A0
S11302300800024072B6044804490160044880473B
S113024062B604480047000008ED00E0000000002A
S1130250410400002504000000F00DF8002801D03E
S113026000BF00BF00BF00BF002000BF00BFFFF7FA
S11302705AFF00F002F80120704780B500F002F840
S113028001BDFEE70746384600F0C2F8FBE7FEE78B
S1130400FFFFFFFFFFFFFFFFFFFFFFFFFEFFFFFFF9
S113041080B500BF00BF024A11001820ABBEFBE745
S1130420260002000548014603B4684680F30988A3
S113043000BF00BF00BF00BFFFF70EFFA5EDF5FE34
S113044000200149086070470081044000480047CB
S1130450AD04000000480047AD0400000048004718
S1130460AD04000000480047AD0400000048004708
S1130470AD04000000480047AD04000000480047F8
S1130480AD04000000480047AD04000000480047E8
S1130490AD04000000480047AD04000000480047D8
S11304A0AD04000000480047AD04000000480047C8
S10D04B0AD040000FEE7FEE7FEE7DE
S9030425D3
