S00B00006170702E73726563D8
S1130400FFFFFFFFFFFFFFFFFFFFFFFFFEFFFFFFF9
S113A00038E8FF1FDDA500003BA6000047A60000BE
S113A010000000000000000000000000000000003C
S113A020000000000000000000000000EDA6000099
S113A0300000000000000000EFA60000F1A60000F0
S113A04085A600008DA6000095A600009DA6000030
S113A050E5A60000E5A60000E5A60000E5A60000D0
S113A060A5A60000ADA60000B5A60000BDA6000090
S113A070C5A60000CDA60000D5A60000E5A60000F8
S113A080E5A60000E5A60000E5A60000E5A60000A0
S113A090E5A60000E5A600001BA20000DDA6000066
S113A0A0E5A60000E5A60000E5A60000E5A6000080
S113A0B0E5A60000E5A60000E5A60000E5A6000070
S113A0C00121C006C00E814091480160704791494A
S113A0D00968802212040A438E490A600021016043
S113A0E07047521EC9B210235943401880214900B9
S113A0F0425070470A00D2B210235A438218842374
S113A1005B00D25802231343C9B2102251434018B2
S113A11084214900435070470A00D2B210235A43A5
S113A120821884235B00D25801231343C9B210223E
S113A130514340188421490043507047C9B210224A
S113A1405143401886214900405870470A00D2B252
S113A15010235A43821886235B00D25801231343E9
S113A160C9B2102251434018862149004350704718
S113A17070B504000D0016002000FFF7A8FF3200A0
S113A1802900C9B22000FFF7ACFF70BD80B5624A58
S113A19000216248FFF7ECFF00216048FFF7AAFFA7
S113A1A01620FFF78DFF00215C48FFF7B5FF01BDC6
S113A1B070B504000D001600142000F0B5F800215D
S113A1C00160002141600021816006740021417416
S113A1D0C5605349E4B204225443085151480078FD
S113A1E0401C5049087070BD10B44D4A0300DBB2E6
S113A1F004246343D25811600021494A0300DBB2AE
S113A20004246343D25891600121454AC0B2042317
S113A21058431058417410BC704738B50024414865
S113A220057800213D48FFF789FF01286DD1002101
S113A2303A48FFF78BFF60E039482100C9B2042295
S113A24051434058002857D035482100C9B2042250
S113A25051434058407C01284ED131482100C9B2B5
S113A2600422514340588068401C2D492200D2B238
S113A27004235A43895888606D1E29482100C9B2B5
S113A280042251434058806825492200D2B2042355
S113A2905A438958096888422ED121482100C9B2FD
S113A2A0042251434058C068804700201C492200C2
S113A2B0D2B204235A438958886019482100C9B28C
S113A2C00422514340584068002815D01448210006
S113A2D0C9B2042251434058406811492200D2B205
S113A2E004235A438958086000200D492200D2B241
S113A2F004235A4389584860641C2000C0B20A28C9
S113A30003D22800C0B2002896D131BD000000005D
S113A31000E100E03C800440F628000000700340A7
S113A32000E0FF1F34E0FF1F10B5040000BF00BFB2
S113A330200000F005F8040000BF00BF200010BD9D
S113A34038B504000F3407218C43A0422BD2082CCB
S113A35004D2082402E0083000F03EF83C490A68C0
S113A360100005D1002207E01D68A5420DD2181D7A
S113A3700368002BF8D11268081D00E0181D03685B
S113A38093420CD01D68A542F8D300280BD0026874
S113A3901368083BA34208D2536803600FE000F03F
S113A3A059F80028D7D1002032BD1319036053682F
S113A3B0151D2B5113681B1B05682B601460006866
S113A3C0002804D04368002B01D0001D00E00020C9
S113A3D008601000083032BD002800D1704770B406
S113A3E008380268072A30D951072ED118494B681A
S113A3F0002B01D0984203D24360486017E02B0041
S113A4005D68002D01D08542F9D31D685E19B04204
S113A4101BD3864203D1A8181860180007E05C68B3
S113A420002C02D0821894420FD3446058604268D2
S113A430002A0AD00368C418944206D100240C6090
S113A4401168591801605168416070BC7047000080
S113A45028E0FF1F07490868002801D00020704742
S113A460054807229043086004499143091A016092
S113A470704700BF30E0FF1F3FE8FF1F38F8FF1FA1
S113A48004234B43C358D2B212021A430423594340
S113A4904250704700B5D2B2002A05D18268012328
S113A4A08B401343836004E0426801238B401343D1
S113A4B0436000BDC26801238B401343C3607047EF
S113A4C080B5D2B2012A08D1426901238B401343DB
S113A4D043610022FFF7DEFF04E0426901238B4061
S113A4E09A43426101BD80B51D480068C0218901BD
S113A4F001431B48016001221D211A48FFF7C0FFD8
S113A500012205211848FFF7BBFF01221D2117482E
S113A510FFF7D6FF012205211548FFF7D1FF0122DD
S113A5201D211248FFF7B6FF012205211048FFF74D
S113A530B1FF01BD80B5FFF7D6FFFFF727FE01226B
S113A5400C490020FFF734FEFA2149000020FFF7F0
S113A5504BFEFEE780B51D210448FFF7ABFF01BDAC
S113A5603880044000D0044000C0044000F10F4093
S113A570C0F00F4055A5000070B40123002413E07F
S113A5800168001D194202D04D466918491E0C602D
S113A590091D121F042AFAD20D00960701D50C805A
S113A5A0AD1C1A4000D02C700268001D002AE7D1AF
S113A5B070BC704710B5074979441831064C7C4487
S113A5C0163404E0081D0A68891888470100A1426E
S113A5D0F8D110BD2C0000003800000072B6044809
S113A5E0044901600448804762B6044800470000FB
S113A5F008ED00E000A0000079A600005DA60000C0
S113A60079FFFFFF3800000000E0FF1F000000009A
S113A61000F00DF8002801D0FFF7CCFF00BF00BF09
S113A620002000BF00BFFFF785FF00F002F8012003
S113A630704780B500F002F801BDFEE707463846D2
S113A64000F002F8FBE7FEE780B500BF00BF024A56
S113A65011001820ABBEFBE72600020005480146A6
S113A66003B4684680F3098800BF00BF00BF00BF81
S113A670FFF7CEFFA5EDF5FE002001490860704705
S113A6800081044000480047E5A600000048004758
S113A690E5A6000000480047E5A600000048004782
S113A6A0E5A6000000480047E5A600000048004772
S113A6B0E5A6000000480047E5A600000048004762
S113A6C0E5A6000000480047E5A600000048004752
S113A6D0E5A6000000480047E5A600000048004742
S113A6E0E5A6000000480047E5A60000FEE7FEE7F7
S105A6F0FEE77F
S903A65DF9
